:020000040800F2
:1000000000000220F50B0108810901088909010897
:100010009109010899090108A109010800000000DF
:1000200000000000000000000000000011D60008E1
:10003000A90901080000000061D8000881CC00086F
:10004000450C0108450C0108450C0108450C010848
:10005000450C0108450C0108450C0108450C010838
:10006000450C0108450C0108450C0108B9090108B7
:10007000450C0108450C0108450C0108450C010818
:10008000450C0108450C0108450C0108450C010808
:10009000CD090108450C0108450C0108E1090108DA
:1000A000450C0108450C0108450C0108450C0108E8
:1000B000450C0108450C0108F1090108450C01082F
:1000C000450C0108450C0108450C0108450C0108C8
:1000D000450C0108050A0108450C0108450C0108FA
:1000E000450C0108450C0108450C0108450C0108A8
:1000F000450C0108450C0108450C0108450C010898
:10010000450C0108450C0108450C0108450C010887
:10011000450C0108190A0108450C0108450C0108A5
:10012000450C0108450C01082D0A0108410A010887
:10013000450C01080000000000000000450C01080B
:10014000550A0108450C0108450C0108690A010817
:100150007D0A0108450C0108910A0108450C0108B7
:10016000450C0108450C0108450C0108450C010827
:10017000450C0108450C01080000000000000000CB
:08018000450C0108450C0108C3
:1001900008B52DED028BB0EE408A00F071F9B4EE97
:1001A000488AF1EE10FAF0EE408A0AD6B0EE480A1C
:1001B00000F054F8F7EE007AB4EEE70AF1EE10FA28
:1001C00004DCB0EE680ABDEC028B08BD01F062FDF4
:1001D000BDEC028B034621221A600248BDE80840AC
:1001E00000F07EB83422010800F046BA10EE103A52
:1001F000184923F000428A421AD9B2F1FF4F02D3C4
:1002000030EE400A704700B583B0684600F0DAFA75
:1002100000F003000128DDED010A9DED000A10D079
:10022000022809D090B900F061F803B05DF804FB32
:10023000DFED090A00F05AB800F058F8B1EE400AB4
:10024000F3E700F0D5F8B1EE400AEEE7012000F048
:10025000CFF8EAE7D80F493F0000000010EE103A4F
:1002600023F0004300EE103A704700BF10EE103A42
:10027000194923F000428A421BD9B2F1FF4F02D341
:1002800030EE400A704700B583B0684600F09AFA35
:1002900000F003000128DDED010A9DED000A13D0F6
:1002A00002280BD098B9012000F0A2F803B05DF845
:1002B00004FBDFED0A0A002000F09AB8012000F0EC
:1002C00097F8B1EE400AF1E700F010F8EEE700F021
:1002D0000DF8B1EE400AE9E7D80F493F00000000F1
:1002E0009FED010A704700BF0000C07F10EE103A7A
:1002F00023F00043B3F1485F2CD2FDEEC07A17EE35
:10030000903A002B60D060EE007A9FED317A9FED3D
:10031000315ADFED315A9FED316ADFED316AA7EED8
:10032000875A9FED307AE7EE855AA7EEA56AA7EEC9
:10033000867AE7EE876A67EEA66A60EEC00AB6EED6
:10034000007AE7EEA60AB7EE000AD7EE870A30EE8B
:10035000600A704760EE007A9FED1D7A9FED1D5A8E
:10036000DFED1D5A9FED1D6ADFED1D6A1E4AA7EEE7
:10037000875A93429FED1B7AE5EE275AA5EEA76AAE
:10038000A6EE277AE7EE276A66EEA76AD5D9174A5E
:10039000934214D803F17F4307EE103AB7EE006A98
:1003A00036EE476A60EEC00AF6EE005A97EEA57A7E
:1003B000E7EEA60A37EE607A36EE470A7047B6EEE9
:1003C000076AB5EE027AEDE7B7EE000A704700BFA4
:1003D0004ED747ADF6740F317CF293B4010DD03790
:1003E000ABAA2A3D610BB6BA9999993E0000483FE5
:1003F00010EE103A23F00043B3F1485F04D2FDEE53
:10040000C07A17EE903A5BB360EE007A9FED157AF2
:10041000DFED155A9FED156ADFED156AE7EE875A95
:100420009FED147AA5EEA76A20EE275AE6EE276A1A
:10043000A6EEA77A30B9DFED106AE7EE876AA6EE7E
:10044000850A704727EE457AF6EE006AA0EEA67A96
:10045000DFED0A6AD7EE270AE5EE260A30EE600ADB
:10046000704700BFD3C92E2F342FD7B21BEF3836B9
:10047000010D50B98988083CABAA2ABEABAA2A3E16
:1004800038B510EE105A25F00044B4F17E5F2DED22
:10049000048BF0EE407A7FD077D8B4F17C5F0ED237
:1004A000B4F1485F80F092809FED637A30EE077A76
:1004B000F7EE006AB4EEE67AF1EE10FA62DCB0EE26
:1004C000670AFFF7CBFEF7EE007A37EEC08AB6EE8A
:1004D000007A28EE078ADFED596A9FED597A9FED81
:1004E000596A9FED595ADFED595ADFED598AE8EE06
:1004F000076A9FED587AA8EE067A9FED576AA6EE36
:10050000885AA7EE086A9FED557ADFED556AE5EE49
:10051000085AA6EE087AE5EE886AE7EE087AE6EE73
:10052000888AB0EE480AB0EE679A00F04BFB4D4B5C
:100530009C4268EE888A3AD810EE103A6FF30B03AB
:1005400006EE903AA6EEE68A70EE267A88EE895A92
:10055000C8EE274A9FED447ADFED447AB0EE006A98
:10056000A4EEC67A30EE000AF0EE675A90EE057AF5
:10057000E6EEC65A37EE657A37EEC70A002D01DC83
:10058000B1EE400ABDEC048B38BDBDEC048B70EEBF
:10059000407A87EEA70A38BDBDEC048B9FED320A86
:1005A0009FED337A27EE800AA7EE870A38BD88EEE2
:1005B000896A9FED307ADFED2E7AA0EE060AF0EE22
:1005C000006AA0EE267A37EEC70AD7E720EE007A57
:1005D000DFED1B6A9FED196ADFED1B5A9FED195A7B
:1005E000DFED1A4AA7EE266ABDEC048BE6EE075A49
:1005F000DFED186A9FED186AE7EE056AE5EE874AB7
:10060000A6EE876A9FED165ADFED145ADFED106AE9
:10061000A4EE875AE6EE075AE5EE076AB7EE006ADF
:10062000A5EE876A26EE877AC7EE066AE0EE267A9E
:10063000B0EE670A38BD00BFCAF24971047F4F3A75
:1006400008EF11382EC69D3D461124BDA80A4E3E26
:10065000ABAA2A3E613330BF2D57014039D119C0B2
:1006600090B0A6BE9999793F2EBD3BB3DB0F493FB1
:10067000DB0FC93F2EBD3B3310B582B0CDED010A73
:10068000019B23F00042B2F1FF4FF0EE407A30D8E8
:1006900010EE100A20F00041B1F1FF4F29D8B3F15C
:1006A0007E5F42D09C1704F0020444EAD07431B358
:1006B0007AB3B2F1FF4F40D0B1F1FF4F29D0891A80
:1006C000B1F1F45F4FEAE15234DA002B42DA3C3206
:1006D00040DA9FED340A012C4ED0022C43D064B195
:1006E0009FED317ADFED317A30EE070A30EE670A9E
:1006F00003E09DED017A37EE270A02B010BD022C0F
:1007000010D09FED2B7A032C08BFB0EE470A02B041
:1007100010BD9FED280ADFED287A0028A8BFB0EEB3
:10072000670AEAE79FED210AE7E702B0BDE810405B
:1007300000F078B99FED200ACDE7B1F1FF4F04F149
:10074000FF3420D0022C26D81C4B03EB840393EDFE
:10075000030AD2E79DED017A87EE870AFFF77EFD57
:1007600000F060F9B7E79FED107ADFED107A30EE18
:10077000070A37EEC00AC0E710EE103A03F1004353
:1007800000EE103AB9E7022C08D80C4B03EB8403B7
:1007900093ED000AB1E79FED030AAEE79FED080A6B
:1007A000ABE700BF000000002EBDBB33DB0F4940AC
:1007B000DB0F49C0DB0FC9BFDB0FC93F6C1B010852
:1007C000DB0F493F70B510EE103A884A23F0004421
:1007D000944286B0054671D9854A94421E4624D873
:1007E00023F00042002BDFED837A834922F00F02D1
:1007F000B0EE407A40F3E0808A4270EE677A09BF3B
:100800009FED7E7ADFED7E6ADFED7E6A77EEC77A56
:1008100037EEE67A77EEC77A80ED007A77EEE67A01
:10082000C0ED017A012006B070BD774A944252D9DA
:10083000B4F1FF4F48D2E215863AA4EBC25307EE5B
:10084000903ABDEEE77ADFED716AB8EEC77A77EEDF
:10085000C77A8DED037A67EEA67ABDEEE77AB8EE39
:10086000C77A77EEC77A8DED047A67EEA67AF5EE51
:10087000407AF1EE10FACDED057A40F09880B5EEB1
:10088000407AF1EE10FA0CBF012302236049019176
:100890000221009103A8294600F098F9002EC2DA3F
:1008A00095ED007AD5ED017AB1EE477AF1EE677AEF
:1008B00085ED007AC5ED017A4042B4E7002285ED6E
:1008C000000A42600020AEE770EE407AC0ED017A87
:1008D000C0ED007AF6E7FFF7C1FC9FED4E7A9FED81
:1008E000456AF6EE007AE0EE077A9FED457AFDEE76
:1008F000E77A17EE900AF8EEE76A1F28A6EEC60A16
:1009000066EE877AB1EE666A20DC434A411E26F025
:10091000004352F8212023F0FF03934216D030EE1B
:10092000677A30EE470A002E30EE670A85ED007ACE
:1009300085ED010ABFF677AFB1EE477AB1EE400A16
:1009400085ED007A85ED010A40426CE730EE677A6A
:10095000E21517EE103AC3F3C753C3EBD453082B79
:10096000DFDD9FED267A9FED275AF0EE405AE6EE46
:10097000075A70EE657AE6EE077AD6EE857A35EE9E
:10098000E77A17EE103AC3F3C753D21A192A10DDCB
:100990009FED227A9FED225AB0EE650AA6EE070A75
:1009A00075EEC07AE6EE077AD6EE857AB7E70323CE
:1009B0006CE7B0EE650AB4E78A4270EE277A09BFA9
:1009C0009FED0E7ADFED0E6ADFED0E6A77EE877A25
:1009D00037EEA67A77EEC77A80ED007A77EEA67AC0
:1009E000C0ED017A4FF0FF301DE700BFD80F493F3F
:1009F000E3CB1640800FC93FD00FC93F00443537C5
:100A00004344353708A3852E800F494300008043B7
:100A1000041C010884F9223F841B010800A3852ED1
:100A200032318D2438B510EE105A25F00044B4F15F
:100A3000A14FF0EE407A0DD3B4F1FF4F58D8DFED5F
:100A40004F7A9FED4F7A002DCCBFB0EE470AB0EE43
:100A5000670A38BD4B4B9C4259D8B4F1445F4AD326
:100A60004FF0FF3227EEA76A9FED475A9FED477A76
:100A7000DFED475ADFED474A66EE066A531CA6EEE5
:100A8000857AE6EEA54A9FED445ADFED445AA7EE7B
:100A9000265AE4EEA65A9FED427ADFED424AA5EED1
:100AA000267AE5EEA64A9FED405ADFED405AA7EEC2
:100AB000265A9FED3F7AA4EEA67AE5EE265A27EE57
:100AC000267AA5EE867A27EE877A35D0394B03EB66
:100AD000820393ED046AD3ED006A37EE467A002D67
:100AE00037EE677A36EEC70AB3DAB1EE400A38BDA0
:100AF00030EE000A38BD9FED307A30EE077AF7EE1F
:100B0000006AB4EEE67AF1EE10FAA9DD38BDFFF71F
:100B1000A5FB2A4B9C4212D8A3F5D0039C4223D8B4
:100B2000F0EE007ABFEE007AA0EE277A002230EED7
:100B3000270AC7EE007A95E737EEC70A38BD204B83
:100B40009C420BD8F7EE087AB7EE007AA0EE277A2F
:100B5000022230EE670AC0EE077A83E7BFEE007A22
:100B6000C7EE007A03227DE7F7EE007A30EE677A6F
:100B700030EE270A0122C7EE007A73E7DB0FC9BF08
:100B8000DB0FC93FFFFFDF3ED769853C59DA4B3D9C
:100B900021A215BD6BF16EBD356B883D95879DBD5E
:100BA0006E2EBA3D388EE3BD2549123EABAAAA3E51
:100BB000CDCC4CBE1C1F0108CAF24971FFFF973F04
:100BC000FFFF1B40B1EEC00A704700BF2DE9F04F98
:100BD0002DED048BDBB01C46944603930A46CD4BA7
:100BE00068991CF1040F53F82160824604F1FF3824
:100BF000C0F24982BCF1030348BF0CF10403DB10CF
:100C0000029301334FEAC30EACEB0E030593029B34
:100C100016EB0800A3EB080316D401309FEDBE7A53
:100C2000699C18441EA9002BA4BF54F8235007EE5A
:100C3000905A03F10103ACBFF8EEE77AF0EE477A81
:100C40008342E1EC017AEED1002EC0F2B182039B27
:100C50001EA901EB830446AD4FEA83094046F7180D
:100C60000AEB8301B8F1000FDFEDAB7A09DBA34695
:100C70005346F3EC016A3BED017A8B42E6EE877A4C
:100C8000F7D10130B842E5EC017A04F10404E9D16E
:100C90000DF1280B0BEB8603CDE9062E043B9FEDEF
:100CA000A09ADFED9E8A059804930AEB090446AFEB
:100CB0000BEB86090096CDF820C05AAB03EB8603F8
:100CC000002E13ED140A4FEA860515DD7B195A46EE
:100CD00060EE097AB0EE407AFDEEE77A73ED016AD4
:100CE000F8EEE77ABB42A7EEE87A37EEA60ABDEE49
:100CF000C77AA2EC017AEBD1019000F085FAF4EE0C
:100D0000007AB0EE408A20EE270A00F0EFFAF2EE09
:100D1000007AA0EE678A01980028FDEEC89AF8EEE6
:100D2000E97A38EE678A6CDD06F1FF3EC0F1080310
:100D30005BF82E2042FA03FC0CFA03F3D21AC0F13E
:100D4000070119EE903A4BF82E200A416344002A1D
:100D500009EE903A00F3F080B5EE408AF1EE10FA19
:100D600040F09D80009B9E420ADD5D44002355F8C3
:100D7000041D4D4543EA0103F9D1002B40F0F280F8
:100D8000009B013B5BF82330002B40F0E780049B85
:100D9000012153F8042D0131002AFAD0731C31448B
:100DA0009C46029D039A05EB030E0EF1804E699D51
:100DB00032440EF1FF3E07EB83061EAB05EB8E0EB1
:100DC00003EB8205DEED017AF8EEE77AB8F1000F69
:100DD0000EF1040EE5EC017ADFED4F7A09DB2A46CD
:100DE0005346F3EC016A32ED017AA342E6EE877ACC
:100DF000F7D10CF1010C6145E6EC017AE2DA0E461E
:100E00005BE740F08F80731E5BF82320D211002A2D
:100E1000A2DD19EE903A002E03F1010309EE903A9B
:100E200040F3D48159464FF0000E51F8043B002B9B
:100E30006AD0C3F5807341F8043C04E00B68C3F149
:100E4000FF0341F8043B0EF1010E7645F6DC012369
:100E50009E4600280ADD012878D0022806D1711E9E
:100E60005BF8213003F03F0C4BF821C0022A7FF4DD
:100E700073AFB7EE000A734630EE488A002B3FF49A
:100E80006BAF0992019000F0BFF938EE408A0198EB
:100E9000099AB5EE408AF1EE10FA3FF463AF92463C
:100EA000DDE9062EDDF820C00196AEEB0C00B0EEB9
:100EB000480A009E009200F0A7F9DFED186AB4EE30
:100EC000E60AF1EE10FADDE90023F0EE407AC0F216
:100ED00050819FED137A059920EE077A0831BDEE17
:100EE000C77A0591B8EEC77A5C1CE7EE667ABDEE6C
:100EF000C77AFDEEE77A17EE901A4BF8231017EE3B
:100F0000103A4BF8243046E00EF1010EB6458CDB6A
:100F10009E469EE73C1F0108000000000000804341
:100F20000000803BF6EE007AB4EEE78AF1EE10FAAC
:100F300080F2988000220FE70133002E09EE903AEC
:100F40003FF770AF002301289E4686D1711E5BF8E3
:100F5000213003F07F0C4BF821C087E7731C9C46BF
:100F600019461EE733469246DDE905125C1EA1F1E3
:100F700008005BF82410009E059061B903F18043DE
:100F8000013B0BEB8303014653F8040D013C083988
:100F90000028F9D0059105980092B7EE000A00F0FC
:100FA00033F9002C009AB0EE407AC0F20581601C43
:100FB00046AD5FED256A81000BEB800305EB8000F9
:100FC00073ED017AF8EEE77A5B4567EE877A27EEF4
:100FD000267A60ED017AF3D10DF1C8080B1F46A8FF
:100FE000C718C646A44600259146002E73DB844AE6
:100FF000DFED847A3846002301E0AB4208DCF2ECF6
:10100000016AB0EC017A01339E42E6EE877AF4DAA7
:101010000CF1FF3CBCF1FF3FEEEC017A05F101055C
:10102000A7F10407E1D1689B022B4A4656DC002B4E
:101030002EDC0ED1DFED737A414431ED017A41456A
:1010400077EE877AF9D15346002B40F0AE80C2ED9F
:10105000007A19EE903A03F007005BB0BDEC048B08
:10106000BDE8F08F19EE903A002E03F1010309EE6E
:10107000903AC8BF02223FF7D5AEF7EE007A37EEBE
:10108000C88A022268E600234FF0080E0293BBE5EF
:101090009FED5C7A414471ED017A414537EE277A44
:1010A000F9D1DDED327A534677EEC77A002B75D150
:1010B00082ED007A64B133A90123B1EC017A0133E6
:1010C0009C4277EE877AF8DA53460BB1F1EE677AF5
:1010D000C2ED017ABDE7DFED4B7A99E7689B032B00
:1010E000B7D1002C7ED008EB840595ED007AA000E6
:1010F0002B46294671ED017AF0EE476A37EE277AE2
:10110000414577EEC77A81ED007A77EEA67AC1ED98
:10111000017AEFD1012C65D095ED007A08F1040138
:1011200073ED017AF0EE476A37EE277A994277EE4F
:10113000C77A83ED007A77EEA67AC3ED017AEFD114
:10114000031DDFED307A434408F1080833ED017ADE
:10115000984577EE877AF9D15346DDED326A9DEDF9
:10116000337A73B9C2ED006A82ED017AC2ED027A78
:101170006FE7FDEEC07A1C4617EE901A4BF823106D
:1011800009E7F1EE666AB1EE477AF1EE677AC2EDF1
:10119000006A82ED017AC2ED027A5AE7B1EE477A2F
:1011A00082ED007A002C86D190E7F1EE677A4EE767
:1011B000039B4FEA83096BE5689B022B0EDC002B37
:1011C00013DC7FF446AFDFED0F7A3CE7022A7FF4B1
:1011D000C3ADF7EE007A37EEC88ABDE5689B032BF6
:1011E0007FF437AFDFED077AB6E75346DDED327AAD
:1011F00013B9002313606BE74FF00043136065E7FA
:10120000481F01080000000010EE103A33F00041C2
:101210001A4627D0B1F1FF4F21D213F0FF4F22D150
:10122000DFED2B7A2B4A60EE277A904217EE903A48
:1012300033DB4CF2503CC3F3C75160451A46A1F171
:10124000190116DDDFED247ADFED246A002BB0EE04
:10125000677AB8BFF0EE667A27EE870A704730EEFD
:10126000000A704770474CF2503C60454FEAD1513C
:10127000E8DC0144FE29E5DC002915DC11F1160F3C
:1012800019DB193122F0FF4242EAC15207EE902ADF
:101290009FED130A27EE800A7047DFED127A07EE02
:1012A000103A27EE270A704722F0FF4242EAC15364
:1012B00000EE103A7047DFED0B7ADFED0B6A002B82
:1012C000B0EE677AB8BFF0EE667A27EE870A70470D
:1012D0000000004CB03CFFFFCAF24971CAF249F16C
:1012E000000000336042A20D6042A28D10EE102A71
:1012F000C2F3C7537F3B162B22F0004129DC002BA1
:10130000104618DB1A4919410A4221D0DFED197A3B
:1013100070EE277AF5EEC07AF1EE10FA18DD002AA9
:1013200004DA4FF4000242FA03F3184420EA0103FE
:1013300000EE103A7047DFED0F7A70EE277AF5EE87
:10134000C07AF1EE10FA03DD002A08DB9FED0A0AED
:101350007047B1F1FF4FFBD330EE000A7047DFED6D
:10136000077A0029BFEE000A08BFB0EE670A70478F
:10137000FFFF7F00CAF249710000000000000080FA
:1013800081F0004102E000BF83F0004330B54FEA36
:1013900041044FEA430594EA050F08BF90EA020FA3
:1013A0001FBF54EA000C55EA020C7FEA645C7FEA36
:1013B000655C00F0E2804FEA5454D4EB5555B8BF59
:1013C0006D420CDD2C4480EA020281EA030382EACA
:1013D000000083EA010180EA020281EA0303362D5C
:1013E00088BF30BD11F0004F4FEA01314FF4801C2F
:1013F0004CEA113102D0404261EB410113F0004F41
:101400004FEA03334CEA133302D0524263EB4303F7
:1014100094EA050F00F0A780A4F10104D5F1200E95
:101420000DDB02FA0EFC22FA05F2801841F10001F0
:1014300003FA0EF2801843FA05F359410EE0A5F1C4
:1014400020050EF1200E012A03FA0EFC28BF4CF0F5
:10145000020C43FA05F3C01851EBE37101F00045AB
:1014600007D54FF0000EDCF1000C7EEB00006EEBB8
:101470000101B1F5801F1BD3B1F5001F0CD3490842
:101480005FEA30004FEA3C0C04F101044FEA445299
:1014900012F5800F80F09A80BCF1004F08BF5FEA20
:1014A000500C50F1000041EB045141EA050130BD00
:1014B0005FEA4C0C404141EB0101013C28BFB1F512
:1014C000801FE9D291F0000F04BF01460020B1FA5D
:1014D00081F308BF2033A3F10B03B3F120020CDA30
:1014E0000C3208DD02F1140CC2F10C0201FA0CF00E
:1014F00021FA02F10CE002F11402D8BFC2F1200C73
:1015000001FA02F120FA0CFCDCBF41EA0C01904028
:10151000E41AA2BF01EB0451294330BD6FEA040471
:101520001F3C1CDA0C340EDC04F11404C4F120025C
:1015300020FA04F001FA02F340EA030021FA04F36E
:1015400045EA030130BDC4F10C04C4F1200220FAC5
:1015500002F001FA04F340EA0300294630BD21FA03
:1015600004F0294630BD94F0000F83F4801306BFC9
:1015700081F480110134013D4EE77FEA645C18BFBD
:101580007FEA655C29D094EA050F08BF90EA020F54
:1015900005D054EA000C04BF1946104630BD91EA4C
:1015A000030F1EBF0021002030BD5FEA545C05D14F
:1015B0004000494128BF41F0004130BD14F580048E
:1015C0003CBF01F5801130BD01F0004545F0FE4102
:1015D00041F470014FF0000030BD7FEA645C1ABF37
:1015E000194610467FEA655C1CBF0B46024650EA6E
:1015F000013406BF52EA033591EA030F41F400219A
:1016000030BD00BF90F0000F04BF0021704730B51F
:101610004FF4806404F132044FF000054FF00001F4
:1016200050E700BF90F0000F04BF0021704730B5B5
:101630004FF4806404F1320410F0004548BF40428A
:101640004FF000013EE700BF42004FEAE2014FEADF
:1016500031014FEA02701FBF12F07F4393F07F4FBA
:1016600081F06051704732F07F4208BF704793F0BD
:101670007F4F04BF41F40021704730B54FF46074D0
:1016800001F0004521F000411CE700BF50EA0102D3
:1016900008BF704730B54FF000050AE050EA01027C
:1016A00008BF704730B511F0004502D5404261EBEC
:1016B00041014FF4806404F132045FEA915C3FF42D
:1016C000D8AE4FF003025FEADC0C18BF03325FEACA
:1016D000DC0C18BF033202EBDC02C2F1200300FA7B
:1016E00003FC20FA02F001FA03FE40EA0E0021FAA0
:1016F00002F11444BDE600BF70B54FF0FF0C4CF48E
:10170000E06C1CEA11541DBF1CEA135594EA0C0F3F
:1017100095EA0C0F00F0DEF82C4481EA030621EA7A
:101720004C5123EA4C5350EA013518BF52EA0335B5
:1017300041F4801143F4801338D0A0FB02CE4FF067
:101740000005E1FB02E506F00042E0FB03E54FF097
:101750000006E1FB03569CF0000F18BF4EF0010E8F
:10176000A4F1FF04B6F5007F64F5407404D25FEA8B
:101770004E0E6D4146EB060642EAC62141EA55513E
:101780004FEAC52040EA5E504FEACE2EB4F1FD0C80
:1017900088BFBCF5E06F1ED8BEF1004F08BF5FEAFE
:1017A000500E50F1000041EB045170BD06F00046B0
:1017B00046EA010140EA020081EA0301B4EB5C045D
:1017C000C2BFD4EB0C0541EA045170BD41F4801155
:1017D0004FF0000E013C00F3AB8014F1360FDEBF7A
:1017E000002001F0004170BDC4F10004203C35DA56
:1017F0000C341BDC04F11404C4F1200500FA05F3D9
:1018000020FA04F001FA05F240EA020001F0004279
:1018100021F0004110EBD37021FA04F642EB0601EF
:101820005EEA430E08BF20EAD37070BDC4F10C0419
:10183000C4F1200500FA04F320FA05F001FA04F2DD
:1018400040EA020001F0004110EBD37041F10001C9
:101850005EEA430E08BF20EAD37070BDC4F12005D4
:1018600000FA05F24EEA020E20FA04F301FA05F23C
:1018700043EA020321FA04F001F0004121FA04F2E4
:1018800020EA020000EBD3705EEA430E08BF20EAB4
:10189000D37070BD94F0000F0FD101F000464000EE
:1018A00041EB010111F4801F08BF013CF7D041EA70
:1018B000060195F0000F18BF704703F00046520074
:1018C00043EB030313F4801F08BF013DF7D043EA45
:1018D0000603704794EA0C0F0CEA135518BF95EAFB
:1018E0000C0F0CD050EA410618BF52EA4306D1D182
:1018F00081EA030101F000414FF0000070BD50EAA1
:10190000410606BF1046194652EA430619D094EA2A
:101910000C0F02D150EA013613D195EA0C0F05D114
:1019200052EA03361CBF104619460AD181EA030168
:1019300001F0004141F0FE4141F470014FF0000020
:1019400070BD41F0FE4141F4780170BD70B54FF0BB
:10195000FF0C4CF4E06C1CEA11541DBF1CEA13553B
:1019600094EA0C0F95EA0C0F00F0A7F8A4EB05041D
:1019700081EA030E52EA03354FEA013100F0888014
:101980004FEA03334FF0805545EA131343EA1263DD
:101990004FEA022245EA111545EA10654FEA002692
:1019A0000EF000419D4208BF964244F1FD0404F54B
:1019B000407402D25B084FEA3202B61A65EB0305A7
:1019C0005B084FEA32024FF480104FF4002CB6EB64
:1019D000020E75EB030E22BFB61A754640EA0C00E4
:1019E0005B084FEA3202B6EB020E75EB030E22BF24
:1019F000B61A754640EA5C005B084FEA3202B6EB65
:101A0000020E75EB030E22BFB61A754640EA9C0023
:101A10005B084FEA3202B6EB020E75EB030E22BFF3
:101A2000B61A754640EADC0055EA060E18D04FEAB1
:101A3000051545EA16754FEA06164FEAC30343EA51
:101A400052734FEAC2025FEA1C1CC0D111F4801F1E
:101A50000BD141EA00014FF000004FF0004CB6E717
:101A600011F4801F04BF01430020B4F1FD0C88BFB6
:101A7000BCF5E06F3FF6AFAEB5EB030C04BFB6EBC1
:101A8000020C5FEA500C50F1000041EB045170BDB4
:101A90000EF0004E4EEA113114EB5C04C2BFD4EBE1
:101AA0000C0541EA045170BD41F480114FF0000E65
:101AB000013C90E645EA060E8DE60CEA135594EAE1
:101AC0000C0F08BF95EA0C0F3FF43BAF94EA0C0FE4
:101AD0000AD150EA01347FF434AF95EA0C0F7FF459
:101AE00025AF104619462CE795EA0C0F06D152EAAD
:101AF00003353FF4FDAE1046194622E750EA410691
:101B000018BF52EA43067FF4C5AE50EA41047FF4A1
:101B10000DAF52EA43057FF4EBAE12E74FEA410204
:101B2000B2F1E04324BFB3F5001CDCF1FE5C0DD93B
:101B300001F0004C4FEAC0024CEA5070B2F1004F85
:101B400040EB830008BF20F00100704711F0804F88
:101B500021D113F13872BCBF01F00040704741F44D
:101B600080114FEA5252C2F11802C2F1200C10FA51
:101B70000CF320FA02F018BF40F001004FEAC12335
:101B80004FEAD32303FA0CFC40EA0C0023FA02F3D9
:101B90004FEA4303CCE77FEA625307D150EA0133AF
:101BA0001EBF4FF0FE4040F44000704701F000407F
:101BB00040F0FE4040F40000704700BF53B94AB9FE
:101BC000002908BF00281CBF4FF0FF314FF0FF3045
:101BD00000F00CB8ADF1080C6DE904CE0FF0A0FDDB
:101BE000DDF804E0DDE9022304B07047704700BF70
:101BF000830730B547D0541E002A3ED0CAB20346F0
:101C000001E0013C39D303F8012B9D07F9D1032CE6
:101C10002CD9CDB205EB05250F2C05EB054535D9A3
:101C2000A4F1100222F00F0C03F1100EE6444FEA6B
:101C3000121C1A46C2E90055C2E90255103272451B
:101C4000F8D10CF1010214F00C0F03EB021204F0B6
:101C50000F0C13D0ACF1040323F00303043313443B
:101C600042F8045B9342FBD10CF003042CB1C9B2DF
:101C70001C4403F8011BA342FBD130BD644613464C
:101C8000002CF4D1F9E703461446C0E71A46A446EF
:101C9000E0E700BF014B1868704700BF000000205C
:101CA00070B50F4B0F4DAB42A3EB050607D0B61036
:101CB000002455F8043B01349847A642F9D80FF0A8
:101CC0007FFE094D094B5E1BAB424FEAA60606D0CC
:101CD000002455F8043B01349847A642F9D870BD5A
:101CE0004022010840220108402201084422010844
:101CF000844641EA000313F003036DD1403A41D317
:101D000051F8043B40F8043B51F8043B40F8043BD5
:101D100051F8043B40F8043B51F8043B40F8043BC5
:101D200051F8043B40F8043B51F8043B40F8043BB5
:101D300051F8043B40F8043B51F8043B40F8043BA5
:101D400051F8043B40F8043B51F8043B40F8043B95
:101D500051F8043B40F8043B51F8043B40F8043B85
:101D600051F8043B40F8043B51F8043B40F8043B75
:101D700051F8043B40F8043B51F8043B40F8043B65
:101D8000403ABDD2303211D351F8043B40F8043B05
:101D900051F8043B40F8043B51F8043B40F8043B45
:101DA00051F8043B40F8043B103AEDD20C3205D315
:101DB00051F8043B40F8043B043AF9D2043208D00D
:101DC000D2071CBF11F8013B00F8013B01D30B887F
:101DD00003806046704700BF082A13D38B078DD05D
:101DE00010F003038AD0C3F10403D21ADB071CBF2F
:101DF00011F8013B00F8013B80D331F8023B20F899
:101E0000023B7BE7043AD9D3013A11F8013B00F8D1
:101E1000013BF9D20B7803704B7843708B78837059
:101E20006046704710B5054C237833B9044B13B1A5
:101E30000448AFF300800123237010BD6C0600201E
:101E400000000000C019010808B5034B1BB103498D
:101E50000348AFF3008008BD0000000070060020BA
:101E6000C019010880B400AF064BD3F88830054A8A
:101E700043F47003C2F8883000BFBD465DF8047BB0
:101E8000704700BF00ED00E080B582B000AF786021
:101E90007B68002B01D1012341E07B6893F83D3042
:101EA000DBB2002B06D17B68002283F83C207868E7
:101EB00000F039F87B68022283F83D207B681A68BD
:101EC0007B6804331946104600F0C0F97B68012294
:101ED00083F846207B68012283F83E207B6801223C
:101EE00083F83F207B68012283F840207B68012231
:101EF00083F841207B68012283F842207B6801221D
:101F000083F843207B68012283F844207B68012208
:101F100083F845207B68012283F83D200023184682
:101F20000837BD4680BD80B483B000AF786000BF85
:101F30000C37BD465DF8047B7047000080B485B067
:101F400000AF78607B6893F83D30DBB2012B01D0A5
:101F500001234EE07B68022283F83D207B681B68EA
:101F6000DA687B681B6842F00102DA607B681B68F4
:101F7000234A934222D07B681B68B3F1804F1DD067
:101F80007B681B681F4A934218D07B681B681E4AF7
:101F9000934213D07B681B681C4A93420ED07B6827
:101FA0001B681B4A934209D07B681B68194A9342FD
:101FB00004D07B681B68184A934211D17B681B6868
:101FC0009B6803F00703FB60FB68062B10D07B685F
:101FD0001B681A687B681B6842F001021A6007E000
:101FE0007B681B681A687B681B6842F001021A60F4
:101FF000002318461437BD465DF8047B704700BFC8
:10200000000001400004004000080040000C0040B7
:1020100000040140004001400018004080B584B039
:1020200000AF78607B681B68DB68FB607B681B68BF
:102030001B69BB60BB6803F00203002B20D0FB6868
:1020400003F00203002B1BD07B681B686FF00202B9
:102050001A617B6801221A777B681B689B6903F011
:102060000303002B03D0786800F0D2F805E078680D
:1020700000F0C4F8786800F0D5F87B6800221A7781
:10208000BB6803F00403002B20D0FB6803F00403BB
:10209000002B1BD07B681B686FF004021A617B6801
:1020A00002221A777B681B689B6903F44073002B3C
:1020B00003D0786800F0ACF805E0786800F09EF88E
:1020C000786800F0AFF87B6800221A77BB6803F0ED
:1020D0000803002B20D0FB6803F00803002B1BD063
:1020E0007B681B686FF008021A617B6804221A770C
:1020F0007B681B68DB6903F00303002B03D078685F
:1021000000F086F805E0786800F078F8786800F06C
:1021100089F87B6800221A77BB6803F01003002B54
:1021200020D0FB6803F01003002B1BD07B681B68DA
:102130006FF010021A617B6808221A777B681B68AF
:10214000DB6903F44073002B03D0786800F060F87B
:1021500005E0786800F052F8786800F063F87B6872
:1021600000221A77BB6803F00103002B0CD0FB6838
:1021700003F00103002B07D07B681B686FF001029E
:102180001A6178680DF036FEBB6803F08003002BFF
:102190000CD0FB6803F08003002B07D07B681B6822
:1021A0006FF080021A61786800F000F9BB6803F0F4
:1021B0004003002B0CD0FB6803F04003002B07D03A
:1021C0007B681B686FF040021A61786800F034F891
:1021D000BB6803F02003002B0CD0FB6803F0200346
:1021E000002B07D07B681B686FF020021A617868AB
:1021F00000F0D2F800BF1037BD4680BD80B483B078
:1022000000AF786000BF0C37BD465DF8047B7047B7
:1022100080B483B000AF786000BF0C37BD465DF876
:10222000047B704780B483B000AF786000BF0C3788
:10223000BD465DF8047B704780B483B000AF786022
:1022400000BF0C37BD465DF8047B704780B485B095
:1022500000AF786039607B681B68FB607B68434A2D
:10226000934213D07B68B3F1804F0FD07B68404A14
:1022700093420BD07B683F4A934207D07B683E4A2B
:10228000934203D07B683D4A934208D1FB6823F018
:102290007003FB603B685B68FA681343FB607B6814
:1022A000324A93422BD07B68B3F1804F27D07B68B2
:1022B0002F4A934223D07B682E4A93421FD07B68DB
:1022C0002D4A93421BD07B682C4A934217D07B68DF
:1022D0002B4A934213D07B682A4A93420FD07B68E3
:1022E000294A93420BD07B68284A934207D07B68E7
:1022F000274A934203D07B68264A934208D1FB6861
:1023000023F44073FB603B68DB68FA681343FB60AF
:10231000FB6823F080023B685B691343FB603B680A
:102320009A687B68DA623B681A687B689A627B68A5
:102330000E4A934203D07B68104A934203D13B6814
:102340001A697B681A637B681B6843F004027B6828
:102350001A607B6801225A617B68FA681A6000BFC4
:102360001437BD465DF8047B704700BF0000014094
:102370000004004000080040000C00400004014040
:102380000040014000440140004801400018004066
:10239000001C00400020004080B483B000AF786093
:1023A00000BF0C37BD465DF8047B704780B483B036
:1023B00000AF786000BF0C37BD465DF8047B704706
:1023C00080B586B002AF78607B68002B01D1012315
:1023D00001E17B681B68BB607B6893F89534DBB2D6
:1023E000002B06D17B68002283F8942478680CF0D7
:1023F00057FF7B68032283F89524BB68B3F1A04F95
:1024000002D17B6800229A717B681B68184601F034
:1024100040FB7B6818687B681A7C8DF800200433C9
:102420000ECB01F01FFA0346002B05D07B68022279
:1024300083F895240123CEE07B681B6800211846B1
:1024400001F038FB0346002B05D07B68022283F89D
:1024500095240123BFE00023FB734AE0FA7B7968EF
:102460001346DB0013449B000B44153301221A7002
:10247000FA7B79681346DB0013449B000B4414334A
:10248000FA7B1A70FA7BFB7B98B279681346DB0003
:1024900013449B000B442E3302461A80FA7B796862
:1024A0001346DB0013449B000B44183300221A70C0
:1024B000FA7B79681346DB0013449B000B441C3302
:1024C00000221A60FA7B79681346DB0013449B00F4
:1024D0000B44203300221A60FA7B79681346DB0034
:1024E00013449B000B44243300221A60FB7B01330E
:1024F000FB737B681B79FA7B9A42AFD30023FB7393
:1025000044E0FA7B79681346DB0013449B000B44DC
:1025100003F2552300221A70FA7B79681346DB0018
:1025200013449B000B4403F51573FA7B1A70FA7B76
:1025300079681346DB0013449B000B4403F51673C4
:1025400000221A70FA7B79681346DB0013449B0063
:102550000B4403F5177300221A60FA7B796813465F
:10256000DB0013449B000B4403F5187300221A6030
:10257000FA7B79681346DB0013449B000B4403F598
:10258000197300221A60FB7B0133FB737B681B7994
:10259000FA7B9A42B5D37B6818687B681A7C8DF801
:1025A000002004330ECB01F0D1FA0346002B05D0F6
:1025B0007B68022283F8952401230CE07B680022CB
:1025C0005A747B68012283F895247B681B6818463F
:1025D00002F01BFB002318461037BD4680BD80B5B6
:1025E00084B000AF78607B681B68FB607B6893F801
:1025F0009434012B01D1022322E07B68012283F86D
:102600009424FB68DB6803F04003002B09D07B684F
:102610005B7B012B05D1FB689B6B43F48032FB682D
:102620009A637B681B68184601F022FA7B681B6876
:10263000184602F0C9FA7B68002283F8942400232C
:1026400018461037BD4680BD90B58DB000AF78609C
:102650007B681B683B623B6AFB617B681B681846B2
:1026600002F087FB0346002B40F08C847B681B68DC
:10267000184602F0EBFA0346002B00F08284FB6957
:1026800003F500639B681B0AC3F30D027B68C3F864
:10269000D4247B681B68184602F0D8FA034603F07E
:1026A0000203022B07D17B681B685A697B681B6891
:1026B00002F002025A617B681B68184602F0C6FAF3
:1026C000034603F01003102B61D17B681B689A69E5
:1026D0007B681B6822F010029A613B6A1B6ABB612F
:1026E000BB6903F00F021346DB0013449B0003F5A4
:1026F00014737A68134404337B61BB6903F4F013E9
:10270000B3F5802F24D1BA6947F6F0731340002B3C
:1027100035D07B69D968BB691B099BB2C3F30A0337
:102720009BB21A46386A02F0FDF87B69DA68BB6929
:102730001B09C3F30A031A447B69DA607B695A698F
:10274000BB691B09C3F30A031A447B695A6116E08B
:10275000BB6903F4F013B3F5402F10D17B6803F28B
:102760009C4308221946386A02F0DCF87B695A69F2
:10277000BB691B09C3F30A031A447B695A617B686E
:102780001B689A697B681B6842F010029A617B683B
:102790001B68184602F05AFA034603F40023B3F507
:1027A000002F40F0A78000237B627B681B681846DF
:1027B00002F05FFAB86299E0BB6A03F00103002BF4
:1027C00000F08E807B681B687A6AD2B21146184688
:1027D00002F083FA38613B6903F00103002B0CD04F
:1027E0007B6A5A01FB69134403F530631A460123DF
:1027F0009360796A786800F0A3FE3B6903F00803F0
:10280000002B0CD07B6A5A01FB69134403F530633B
:102810001A4608239360796A786800F079FF3B696B
:1028200003F01003002B08D07B6A5A01FB691344A4
:1028300003F530631A46102393603B6903F00203EB
:10284000002B30D03B6A5B6903F08003802B09D1F9
:10285000FB6903F500635B68FA6902F5006243F403
:10286000806353607A6A1346DB0013449B0003F5D0
:1028700014737A68134404337B617B69DB78012B22
:1028800008D17B690022DA707B6ADBB2194678686E
:102890000CF00CFE7B6A5A01FB69134403F53063AC
:1028A0001A46022393603B6903F02003002B08D0F3
:1028B0007B6A5A01FB69134403F530631A462023EF
:1028C00093603B6903F40053002B09D07B6A5A01E3
:1028D000FB69134403F530631A464FF400539360C9
:1028E0007B6A01337B62BB6A5B08BB62BB6A002BFD
:1028F0007FF462AF7B681B68184602F0A7F90346B5
:1029000003F48023B3F5802F40F0DB807B681B68E5
:10291000184602F0C8F9B86200237B62CDE0BB6ABA
:1029200003F00103002B00F0C2807B681B687A6A09
:10293000D2B21146184602F0EEF938613B6903F055
:102940000103002B57D07B6A03F00F03012202FA28
:1029500003F3FB60FB6903F500635A6BFB68DB4321
:10296000F96901F5006113404B637B6A5A01FB6909
:10297000134403F510631A46012393607B689B7927
:10298000012B32D179687A6A1346DB0013449B002D
:102990000B442033196878687A6A1346DB001344C5
:1029A0009B0003441C331B68194478687A6A1346F9
:1029B000DB0013449B000344203319607B6A002B27
:1029C00013D179687A6A1346DB0013449B000B44E9
:1029D00024331B68002B08D17B6818687B6803F2DE
:1029E0009C431A46012102F0F5F97B6ADBB21946D5
:1029F00078680CF0D6FC3B6903F00803002B08D084
:102A00007B6A5A01FB69134403F510631A460823D5
:102A100093603B6903F01003002B08D07B6A5A01D6
:102A2000FB69134403F510631A46102393603B6956
:102A300003F04003002B08D07B6A5A01FB69134462
:102A400003F510631A46402393603B6903F00203C9
:102A5000002B23D0796A386A01F0DCF97A6A1346D0
:102A6000DB0013449B0010337A68134404337B610A
:102A70007B69DB78012B08D17B690022DA707B6AE5
:102A8000DBB2194678680CF023FD7B6A5A01FB69BA
:102A9000134403F510631A46022393603B6903F065
:102AA0008003002B03D0796A786800F0BDFC7B6A54
:102AB00001337B62BB6A5B08BB62BB6A002B7FF49D
:102AC0002EAF7B681B68184602F0C0F8034603F07F
:102AD0000043B3F1004F22D1FB6903F500635B684B
:102AE000FA6902F5006223F0010353607B6893F8F2
:102AF000CC34012B08D17B68002283F8CC24002140
:102B0000786800F0A3FE02E078680CF0C1FC7B68F6
:102B10001B685A697B681B6802F000425A617B6837
:102B20001B68184602F092F8034603F40063B3F5FD
:102B3000006F12D1FB6903F500639B6803F001038A
:102B4000012B02D178680CF07DFC7B681B685A6908
:102B50007B681B6802F400625A617B681B68184638
:102B600002F074F8034603F48053B3F5805F40F03D
:102B7000B780FB6903F500635B68FA6902F50062E0
:102B800023F0010353607B681B681021184601F095
:102B900041F90023FB6246E0FB6A5A01FB691344DA
:102BA00003F510631A464FF67F339360FB6A5A01B0
:102BB000FB69134403F510631B68FA6A5101FA6953
:102BC0000A4402F5106223F400131360FB6A5A01F1
:102BD000FB69134403F530631A464FF67F33936065
:102BE000FB6A5A01FB69134403F530631B68FA6AF8
:102BF0005101FA690A4402F5306223F400131360AC
:102C0000FB6A5A01FB69134403F530631B68FA6AD7
:102C10005101FA690A4402F5306243F0006313601F
:102C2000FB6A0133FB627B681B791A46FB6A93429D
:102C3000B2D3FB6903F50063DB69FA6902F5006250
:102C400043F00113D3617B68DB7B002B16D0FB695B
:102C500003F50063D3F88430FA6902F5006243F0AB
:102C60000B03C2F88430FB6903F500635B6CFA69FF
:102C700002F5006243F00B03536415E0FB6903F5B2
:102C800000635B69FA6902F5006243F4005343F0A4
:102C90002B035361FB6903F500631B69FA6902F5B5
:102CA000006243F00B031361FB6903F500631B68CB
:102CB000FA6902F5006223F4FE6313607B6818680A
:102CC0007B6899797B6803F29C431A4602F082F88C
:102CD0007B681B685A697B681B6802F480525A61E2
:102CE0007B681B68184601F0B1FF034603F40053EC
:102CF000B3F5005F23D17B681B68184602F047F8E4
:102D00007B681B68184601F0FEF803461A467B688C
:102D1000DA717B681C6802F017FD01467B68DB797D
:102D20001A46204600F002FE78680CF062FB7B68D1
:102D30001B685A697B681B6802F400525A617B6801
:102D40001B68184601F082FF034603F00803082BB6
:102D50000AD178680CF03FFB7B681B685A697B6876
:102D60001B6802F008025A617B681B68184601F074
:102D70006DFF034603F08003802B23D13B6A9B69E0
:102D800023F080023B6A9A6101237B6214E0796838
:102D90007A6A1346DB0013449B000B4403F257236B
:102DA0001B78012B05D17B6ADBB21946786800F0ED
:102DB0000AFB7B6A01337B627B681B791A467B6A5C
:102DC0009342E4D37B681B68184601F03FFF03463B
:102DD00003F48013B3F5801F3CD101237B622BE009
:102DE0007B6A5A01FB69134403F510631B68BB61DE
:102DF00079687A6A1346DB0013449B000B4418334E
:102E00001B78012B15D1BB69002B12DA79687A6A1D
:102E10001346DB0013449B000B44173301221A7046
:102E20007B6ADBB263F07F03DBB21946786800F09F
:102E3000CAFA7B6A01337B627B681B791A467B6A1C
:102E40009342CDD37B681B685A697B681B6802F488
:102E500080125A617B681B68184601F0F7FE034632
:102E600003F40013B3F5001F56D101237B6245E044
:102E70007B6A5A01FB69134403F530631B68BB612D
:102E800079687A6A1346DB0013449B000B4403F510
:102E900016731B78012B2ED1BB69002B2BDABB6973
:102EA0001A0C7B68D3F8D434534003F00103002B91
:102EB00021D179687A6A1346DB0013449B000B44E6
:102EC00003F2572301221A703B6A9B6943F0800288
:102ED0003B6A9A613B6A5B6903F08003002B0AD16D
:102EE000FB6903F500635B68FA6902F5006243F46D
:102EF0000073536008E07B6A01337B627B681B7957
:102F00001A467B6A9342B3D37B681B685A697B6815
:102F10001B6802F400125A617B681B68184601F0B6
:102F200095FE034603F08043B3F1804F0AD17868E1
:102F30000CF0E0FA7B681B685A697B681B6802F03A
:102F400080425A617B681B68184601F07FFE034689
:102F500003F00403042B15D17B681B685B68BB611D
:102F6000BB6903F00403002B02D078680CF0D0FAA0
:102F70007B681B6859687B681B68BA690A435A609A
:102F800000E000BF3437BD4690BD80B582B000AFD1
:102F900078600B46FB707B6893F89434012B01D169
:102FA000022312E07B68012283F894247B68FA787C
:102FB0005A747B681B68FA781146184601F0DEFDEA
:102FC0007B68002283F89424002318460837BD4606
:102FD00080BD80B584B000AF7860084611461A46BF
:102FE0000346FB700B463B801346BB700023FB720D
:102FF00097F90330002B0FDAFB7803F00F0213462A
:10300000DB0013449B0010337A6813440433FB60E5
:10301000FB6801225A700FE0FB7803F00F021346A1
:10302000DB0013449B0003F514737A6813440433E4
:10303000FB60FB6800225A70FB7803F00F03DAB2E2
:10304000FB681A703B88C3F30A02FB689A60FB684E
:10305000BA781A71FB685B78002B04D0FB681B7888
:103060001A46FB685A83BB78022B02D1FB68002208
:103070005A717B6893F89434012B01D102230EE03E
:103080007B68012283F894247B681B68F9681846E2
:1030900000F05EFF7B68002283F89424FB7A1846D8
:1030A0001037BD4680BD80B584B000AF78600B4658
:1030B000FB7097F90330002B0FDAFB7803F00F0257
:1030C0001346DB0013449B0010337A681344043327
:1030D000FB60FB6801225A700FE0FB7803F00F02DF
:1030E0001346DB0013449B0003F514737A68134402
:1030F0000433FB60FB6800225A70FB7803F00F0377
:10310000DAB2FB681A707B6893F89434012B01D112
:1031100002230EE07B68012283F894247B681B68FD
:10312000F968184600F09CFF7B68002283F894241D
:10313000002318461037BD4680BD80B586B000AF6D
:10314000F8607A603B600B46FB72FB7A03F00F027B
:103150001346DB0013449B0003F51473FA68134411
:1031600004337B617B697A68DA607B693A681A614B
:103170007B6900225A617B6900225A70FB7A03F056
:103180000F03DAB27B691A70FB689B79012B02D1BD
:103190007A687B69DA61FB681868FB689B791A4674
:1031A000796901F039F8002318461837BD4680BD0B
:1031B00080B483B000AF78600B46FB70FB7803F0FF
:1031C0000F0279681346DB0013449B000B4403F5A0
:1031D0001A731B6818460C37BD465DF8047B7047B0
:1031E00080B586B000AFF8607A603B600B46FB723A
:1031F000FB7A03F00F021346DB0013449B001033ED
:10320000FA68134404337B617B697A68DA607B690E
:103210003A681A617B6900225A617B6901225A70FF
:10322000FB7A03F00F03DAB27B691A70FB689B79B3
:10323000012B02D17A687B69DA61FB681868FB6848
:103240009B791A46796900F0E7FF00231846183782
:10325000BD4680BD80B584B000AF78600B46FB7082
:10326000FB7803F00F037A681279934201D90123A6
:103270004FE097F90330002B0FDAFB7803F00F02D1
:103280001346DB0013449B0010337A681344043365
:10329000FB60FB6801225A700DE0FA781346DB00F0
:1032A00013449B0003F514737A6813440433FB60E2
:1032B000FB6800225A70FB6801229A70FB7803F0C9
:1032C0000F03DAB2FB681A707B6893F89434012B11
:1032D00001D102231DE07B68012283F894247B68DE
:1032E0001B68F968184601F075FBFB7803F00F03C3
:1032F000002B09D17B6818687B6899797B6803F299
:103300009C431A4601F066FD7B68002283F89424F2
:10331000002318461037BD4680BD80B584B000AF8D
:1033200078600B46FB70FB7803F00F037A68127924
:10333000934201D9012342E097F90330002B0FDAC1
:10334000FB7803F00F021346DB0013449B0010339D
:103350007A6813440433FB60FB6801225A700FE063
:10336000FB7803F00F021346DB0013449B0003F5C8
:1033700014737A6813440433FB60FB6800225A70AC
:10338000FB6800229A70FB7803F00F03DAB2FB6847
:103390001A707B6893F89434012B01D102230EE05C
:1033A0007B68012283F894247B681B68F9681846BF
:1033B00001F07EFB7B68002283F8942400231846EA
:1033C0001037BD4680BD80B584B000AF78600B4635
:1033D000FB7097F90330002B0CDAFB7803F00F0237
:1033E0001346DB0013449B0010337A681344043304
:1033F000FB600CE0FB7803F00F021346DB00134484
:103400009B0003F514737A6813440433FB607B68F4
:103410001B68F968184601F09DF90346FB72FB7AB8
:1034200018461037BD4680BD80B58AB002AF7860BF
:1034300039607B681B687B617B693B613A68134636
:10344000DB0013449B0010337A6813440433FB60A1
:10345000FB685A69FB681B699A4201D901236BE03A
:10346000FB681A69FB685B69D31AFB61FB689B68A0
:10347000FA699A4202D9FB689B68FB61FB690333D6
:103480009B08BB612AE0FB681A69FB685B69D31A79
:10349000FB61FB689B68FA699A4202D9FB689B68EA
:1034A000FB61FB6903339B08BB61FB68D9683B6820
:1034B000DAB2FB6998B27B689B790093034678691E
:1034C00001F0F2F9FB68DA68FB691A44FB68DA601C
:1034D000FB685A69FB691A44FB685A613B685A01E8
:1034E0003B69134403F510639B699BB2BA699A4226
:1034F00009D8FB685A69FB681B699A4203D2FB68CA
:103500001B69002BBFD1FB681A69FB685B699A4293
:1035100011D83B6803F00F03012202FA03F3BB60EA
:103520003B6903F500635A6BBB68DB43396901F5FE
:10353000006113404B63002318462037BD4680BD11
:1035400080B588B000AF786039607B681B68FB612C
:10355000FB69BB61FB693C3304331B687B613B68DF
:103560005A01BB69134403F530639B683B617B6878
:103570009B79012B7BD13B6903F00803002B15D00D
:103580007B69614A934240F2B9803B6903F400438E
:10359000002B00F0B3803B685A01BB69134403F56C
:1035A00030631A464FF400439360A7E03B6903F091
:1035B0002003002B09D03B685A01BB69134403F573
:1035C00030631A462023936098E03B6903F0280398
:1035D000002B40F093807B694B4A93420FD93B69A3
:1035E00003F40043002B0AD03B685A01BB69134423
:1035F00003F530631A464FF4004393607EE03A6867
:103600001346DB0013449B0003F514737A681344DC
:103610000433FB60FB681A6A3B685901BB690B44C1
:1036200003F530631B69C3F31203D21AFB685A61B6
:103630003B68002B14D1FB681B69002B09D17B6808
:1036400018687B6803F29C431A46012101F0C2FB13
:1036500006E0FB68DA68FB685B691A44FB68DA60BD
:103660003B68DBB2194678680BF080FE46E07B6968
:10367000264A934224D13B6903F40043002B0AD02D
:103680003B685A01BB69134403F530631A464FF493
:103690000043936032E03B6903F02003002B08D025
:1036A0003B685A01BB69134403F530631A46202373
:1036B00093603B68DBB2194678680BF057FE1DE05B
:1036C0003B68002B14D179683A681346DB00134439
:1036D0009B000B4403F519731B68002B08D17B6812
:1036E00018687B6803F29C431A46002101F072FBC4
:1036F0003B68DBB2194678680BF038FE00231846A9
:103700002037BD4680BD00BF0A30544F0A31544FA8
:1037100080B586B000AF786039607B681B687B61DC
:103720007B693B617B693C3304331B68FB603B680E
:103730005A013B69134403F530639B68BB60FB6827
:10374000154A93420ED9BB6803F40043002B09D0FD
:103750003B685A013B69134403F530631A464FF442
:103760000043936078680BF0EFFDFB680A4A9342D0
:103770000CD97B689B79012B08D17B6818687B6822
:1037800003F29C431A46012101F024FB0023184652
:103790001837BD4680BD00BF0A30544F80B485B095
:1037A00000AF78600B46FB7013463B807B681B685C
:1037B0005B6ABB60FB78002B07D13B8819047B68F0
:1037C0001B68BA680A439A6228E07B681B689B6A98
:1037D0001B0CBA681344BB600023FB730DE07B68CD
:1037E0001A68FB7B40339B0013445B681B0CBA6870
:1037F0001344BB60FB7B0133FB73FA7BFB78013B1B
:103800009A42ECD33B8818047B681968FB78013B2B
:10381000BA68024340339B000B445A6000231846A9
:103820001437BD465DF8047B704780B483B000AFA9
:1038300078600B467B807B681B687A885A6200231D
:1038400018460C37BD465DF8047B704780B483B0E2
:1038500000AF78600B46FB7000BF0C37BD465DF8CB
:10386000047B704784B080B584B000AF786007F106
:103870001C0080E80E0097F82130012B23D17B68D3
:103880009B6B23F480327B689A637B68DB6823F44C
:10389000840323F040037A68D3607B68DB6823F4F9
:1038A00040127B68DA6097F82830012B05D17B68DD
:1038B000DB6843F480127B68DA60786801F0E8FA2C
:1038C0000346FB731BE07B68DB6843F040027B68C8
:1038D000DA60786801F0DCFA0346FB7397F825306C
:1038E000002B06D17B689B6B43F480327B689A6324
:1038F00005E07B689B6B23F480327B689A63BB7F17
:10390000012B0BD17B689B6843F006027B689A60B1
:103910007B689B6843F020027B689A60FB7B1846BB
:103920001037BD46BDE8804004B0704780B487B012
:1039300000AFF860B9601346FB71FB79022B65D1CB
:10394000BB68414A934206D9BB68404A934202D2BF
:103950000F237B6162E0BB683C4A934206D3BB689D
:103960003B4A934202D20E237B6157E0BB68384A40
:10397000934206D3BB68374A934202D20D237B6140
:103980004CE0BB68334A934206D3BB68324A934249
:1039900002D80C237B6141E0BB682F4A934206D9D1
:1039A000BB682E4A934202D80B237B6136E0BB688A
:1039B0002A4A934206D9BB68294A934202D80A236D
:1039C0007B612BE0BB68264A934206D9BB68254A37
:1039D000934202D209237B6120E0BB68214A9342D3
:1039E00006D3BB68204A934202D808237B6115E0C6
:1039F000BB681D4A934206D9BB681C4A934202D257
:103A000007237B610AE006237B6107E0FB79002B3B
:103A100002D109237B6101E009237B61FB68DB683C
:103A200023F47052FB68DA60FB68DA687B699B02FA
:103A300003F470531A43FB68DA60002318461C37FE
:103A4000BD465DF8047B7047BFACD800C0E1E40020
:103A50000024F400807306019F491A01FF2C3101F4
:103A60003FA44C0100366E011FABA6010048E801DF
:103A700080B483B000AF78607B689B6843F001023C
:103A80007B689A60002318460C37BD465DF8047BBE
:103A9000704780B483B000AF78607B689B6823F088
:103AA00001027B689A60002318460C37BD465DF81A
:103AB000047B704780B584B000AF78600B46FB7024
:103AC0000023FB607B68DB6823F0C0427B68DA6020
:103AD000FB78012B15D17B68DB6843F000527B68D3
:103AE000DA600A2002F096FDFB680A33FB60786812
:103AF00001F03FF90346012B1ED0FB68C72BF0D91C
:103B00001AE0FB78002B15D17B68DB6843F080421C
:103B10007B68DA600A2002F07DFDFB680A33FB60F7
:103B2000786801F026F90346002B05D0FB68C72B07
:103B3000F0D901E0012305E0FB68C82B01D1012386
:103B400000E0002318461037BD4680BD84B080B524
:103B500086B000AF786007F1240080E80E000023F3
:103B6000FB757B68FB6000233B6109E07A683B6979
:103B700040339B00134400225A603B6901333B6190
:103B80003B690E2BF2D997F82E30002B1CD1FB6825
:103B900003F500635B68FA6802F5006243F0020314
:103BA00053607B689B6B43F400127B689A637B686D
:103BB0009B6B23F400227B689A637B689B6B23F4E6
:103BC00080227B689A630BE07B689B6B23F4001276
:103BD0007B689A637B689B6B43F400227B689A63E3
:103BE000FB6803F560631A460023136097F82930D9
:103BF000012B0DD197F82730002B04D100217868D4
:103C000000F068F908E00121786800F063F903E04A
:103C10000321786800F05EF91021786800F0FAF866
:103C20000346002B01D00123FB75786800F024F9CE
:103C30000346002B01D00123FB75FB6803F50063ED
:103C40001A4600231361FB6803F500631A4600233C
:103C50005361FB6803F500631A460023D361002318
:103C60003B6143E03B695A01FB68134403F5106371
:103C70001B6803F00043B3F1004F18D13B69002BE0
:103C80000AD13B695A01FB68134403F510631A46D5
:103C90004FF00063136013E03B695A01FB68134463
:103CA00003F510631A464FF09043136008E03B6938
:103CB0005A01FB68134403F510631A46002313608E
:103CC0003B695A01FB68134403F510631A4600234D
:103CD00013613B695A01FB68134403F510631A46EC
:103CE0004FF67F3393603B6901333B6197F8243093
:103CF0001A463B699342B5D300233B6143E03B69DD
:103D00005A01FB68134403F530631B6803F000435A
:103D1000B3F1004F18D13B69002B0AD13B695A011E
:103D2000FB68134403F530631A464FF000631360D9
:103D300013E03B695A01FB68134403F530631A46EC
:103D40004FF09043136008E03B695A01FB6813444D
:103D500003F530631A46002313603B695A01FB6880
:103D6000134403F530631A46002313613B695A017B
:103D7000FB68134403F530631A464FF67F339360B4
:103D80003B6901333B6197F824301A463B69934203
:103D9000B5D3FB6803F500631B69FA6802F500629E
:103DA00023F4807313617B6800229A617B686FF053
:103DB00080425A6197F82630002B05D17B689B69B9
:103DC00043F010027B689A617B689A69104B134339
:103DD0007A68936197F82A30002B05D07B689B693D
:103DE00043F008027B689A6197F82E30012B07D1C7
:103DF0007B689B6943F0804343F004037A689361D6
:103E0000FB7D18461837BD46BDE8804004B07047BA
:103E100000383C8080B485B000AF78603960002302
:103E2000FB60FB680133FB60FB68B3F1706F01D985
:103E300003231BE07B681B69002BF2DA0023FB6085
:103E40003B689B0143F020027B681A61FB680133E9
:103E5000FB60FB68B3F1706F01D9032306E07B6858
:103E60001B6903F02003202BF0D0002318461437E1
:103E7000BD465DF8047B704780B485B000AF7860C4
:103E80000023FB60FB680133FB60FB68B3F1706FDC
:103E900001D9032318E07B681B69002BF2DA0023A9
:103EA000FB607B6810221A61FB680133FB60FB68D2
:103EB000B3F1706F01D9032306E07B681B6903F03F
:103EC0001003102BF0D0002318461437BD465DF8C0
:103ED000047B704780B485B000AF78600B46FB7000
:103EE0007B68FB60FB6803F500631A68FB78F96880
:103EF00001F5006113430B60002318461437BD46DB
:103F00005DF8047B704780B487B000AF78607B6851
:103F10003B613B6903F500639B6803F00603FB60AC
:103F2000FB68002B02D10023FB750AE0FB68022B23
:103F300002D0FB68062B02D10223FB7501E00F23A0
:103F4000FB75FB7D18461C37BD465DF8047B70474A
:103F500080B485B000AF786039607B68FB603B68F7
:103F60001B78BB603B685B78012B3AD1FB6803F59B
:103F70000063DA693B681B7803F00F03012101FA43
:103F800003F39BB2F96801F500611343CB61BB6891
:103F90005A01FB68134403F510631B6803F40043E4
:103FA000002B55D1BB685A01FB68134403F510631D
:103FB0001A683B689B68C3F30A013B681B799B0442
:103FC0001943BB689B050B431343BA685101FA6858
:103FD0000A4402F5106243F0805343F40043136037
:103FE00036E0FB6803F50063DA693B681B7803F091
:103FF0000F03012101FA03F31B04F96801F50061C5
:104000001343CB61BB685A01FB68134403F530636B
:104010001B6803F40043002B1AD1BB685A01FB68EC
:10402000134403F530631A683B689B68C3F30A01C5
:104030003B681B799B040B431343BA685101FA6830
:104040000A4402F5306243F0805343F400431360A6
:10405000002318461437BD465DF8047B7047000006
:1040600080B485B000AF786039607B68FB603B68E6
:104070001B78BB603B685B78012B61D1BB685A0140
:10408000FB68134403F510631B6803F00043B3F1AE
:10409000004F1FD1BB685A01FB68134403F510633E
:1040A0001B68BA685101FA680A4402F5106243F0CD
:1040B00000631360BB685A01FB68134403F5106387
:1040C0001B68BA685101FA680A4402F5106243F0AD
:1040D00080431360FB6803F50063DA6B3B681B7871
:1040E00003F00F03012101FA03F39BB2DB43F968EC
:1040F00001F500611340CB63FB6803F50063DA69E7
:104100003B681B7803F00F03012101FA03F39BB214
:10411000DB43F96801F500611340CB61BB685A01CC
:10412000FB68134403F510631A68BB685901FB6808
:104130000B4403F510631946354B13400B6060E0E8
:10414000BB685A01FB68134403F530631B6803F036
:104150000043B3F1004F1FD1BB685A01FB68134401
:1041600003F530631B68BA685101FA680A4402F526
:10417000306243F000631360BB685A01FB6813446C
:1041800003F530631B68BA685101FA680A4402F506
:10419000306243F080431360FB6803F50063DA6B21
:1041A0003B681B7803F00F03012101FA03F31B04A2
:1041B000DB43F96801F500611340CB63FB6803F54D
:1041C0000063DA693B681B7803F00F03012101FAF1
:1041D00003F31B04DB43F96801F500611340CB6175
:1041E000BB685A01FB68134403F530631A68BB6867
:1041F0005901FB680B4403F530631946054B134026
:104200000B60002318461437BD465DF8047B7047E9
:10421000007833EC0078F3EF80B58AB002AFF86035
:10422000B9601346FB71FB68FB61BB681B78BB611F
:10423000BB685B78012B40F07F81BB681B69002B5A
:1042400032D1BB695A01FB69134403F510631B6942
:10425000BA695101FA690A4402F5106223F0FF536A
:1042600023F4C0131361BB695A01FB69134403F5BE
:1042700010631B69BA695101FA690A4402F51062B8
:1042800043F400231361BB695A01FB69134403F52E
:1042900010631B69BA695101FA690A4402F5106298
:1042A000DB0CDB04136197E0BB695A01FB69134423
:1042B00003F510631B69BA695101FA690A4402F5F2
:1042C0001062DB0CDB041361BB695A01FB69134408
:1042D00003F510631B69BA695101FA690A4402F5D2
:1042E000106223F0FF5323F4C0131361BB69002B4A
:1042F0001AD1BB681A69BB689B689A4203D9BB682C
:104300009A68BB681A61BB695A01FB69134403F5DB
:1043100010631B69BA695101FA690A4402F5106217
:1043200043F40023136144E0BB681A69BB689B68CF
:1043300013445A1EBB689B68B2FBF3F3FB82BB6954
:104340005A01FB69134403F510631A69FB8AD90407
:10435000A44B0B40B9694801F969014401F51061AA
:1043600013430B61BB681B79012B22D1BB695A0136
:10437000FB69134403F510631B69BA695101FA69BB
:104380000A4402F5106223F0C0431361BB695A016D
:10439000FB69134403F510631A69FB8A5B0703F09A
:1043A000C043B9694801F969014401F5106113433B
:1043B0000B61BB695A01FB69134403F510631A6969
:1043C000BB681B69C3F31203B9694801F969014469
:1043D00001F5106113430B61FB79012B4BD1BB68D5
:1043E000DB69002B09D0BB695A01FB69134403F553
:1043F00010631A46BB68DB695361BB681B79012BEC
:1044000028D1FB6903F500639B6803F48073002BDC
:1044100010D1BB695A01FB69134403F510631B6893
:10442000BA695101FA690A4402F5106243F0005377
:1044300013600FE0BB695A01FB69134403F5106375
:104440001B68BA695101FA690A4402F5106243F027
:1044500080531360BB695A01FB69134403F5106371
:104460001B68BA695101FA690A4402F5106243F007
:104470000443136066E1BB695A01FB69134403F509
:1044800010631B68BA695101FA690A4402F51062A7
:1044900043F004431360BB681B79012B15D0BB6844
:1044A0001B69002B00F04E81FB6903F500635A6B1A
:1044B000BB681B7803F00F03012101FA03F3F969CC
:1044C00001F5006113434B633CE1FB6903F50063B5
:1044D0009B6803F48073002B10D1BB695A01FB6900
:1044E000134403F510631B68BA695101FA690A4461
:1044F00002F5106243F0005313600FE0BB695A01EC
:10450000FB69134403F510631B68BA695101FA692A
:104510000A4402F5106243F080531360BB68D96807
:10452000BB681A78BB681B6998B2FB790093034695
:10453000F86800F0B9F905E1BB695A01FB69134459
:1045400003F530631B69BA695101FA690A4402F53F
:104550003062DB0CDB041361BB695A01FB69134455
:1045600003F530631B69BA695101FA690A4402F51F
:10457000306223F0FF5323F4C0131361BB69002B97
:1045800032D1BB681B69002B03D0BB689A68BB683B
:104590001A61BB689A68BB681A62BB695A01FB69F9
:1045A000134403F530631A69BB681B6AC3F3120333
:1045B000B9694801F969014401F5306113430B61A0
:1045C000BB695A01FB69134403F530631B69BA697F
:1045D0005101FA690A4402F5306243F40023136181
:1045E00062E000BF0000F81FBB681B69002B23D1ED
:1045F000BB695A01FB69134403F530631A69BB6850
:104600009B68C3F31203B9694801F969014401F5D4
:10461000306113430B61BB695A01FB69134403F515
:1046200030631B69BA695101FA690A4402F53062C4
:1046300043F40023136137E0BB681A69BB689B68C9
:1046400013445A1EBB689B68B2FBF3F3FB82BB6842
:104650009B68FA8A03FB02F2BB681A62BB695A01C3
:10466000FB69134403F530631A69FB8AD904384B9C
:104670000B40B9694801F969014401F53061134300
:104680000B61BB695A01FB69134403F530631A6976
:10469000BB681B6AC3F31203B9694801F969014495
:1046A00001F5306113430B61FB79012B0DD1BB6820
:1046B000DB68002B09D0BB68D968BB695A01FB696C
:1046C000134403F530630A465A61BB681B79012B1A
:1046D00028D1FB6903F500639B6803F48073002B0A
:1046E00010D1BB695A01FB69134403F530631B68A1
:1046F000BA695101FA690A4402F5306243F0005385
:1047000013600FE0BB695A01FB69134403F5306382
:104710001B68BA695101FA690A4402F5306243F034
:1047200080531360BB695A01FB69134403F530637E
:104730001B68BA695101FA690A4402F5306243F014
:1047400004431360002318462037BD4680BD00BFD8
:104750000000F81F80B487B000AF78603960002394
:10476000FB600023FB757B683B613B685B78012B3A
:104770004AD13B681B785A013B69134403F5106327
:104780001B6803F00043B3F1004F40F086803B68A4
:104790001B785A013B69134403F510631B683A68A0
:1047A000127851013A690A4402F5106243F000633D
:1047B00013603B681B785A013B69134403F510638F
:1047C0001B683A68127851013A690A4402F510628E
:1047D00043F080431360FB680133FB60FB6842F2E7
:1047E0001072934202D90123FB7556E03B681B7897
:1047F0005A013B69134403F510631B6803F000433F
:10480000B3F1004FE7D048E03B681B785A013B69A1
:10481000134403F530631B6803F00043B3F1004F0A
:104820003BD13B681B785A013B69134403F5306365
:104830001B683A68127851013A690A4402F53062FD
:1048400043F0006313603B681B785A013B691344D3
:1048500003F530631B683A68127851013A690A44DB
:1048600002F5306243F080431360FB680133FB6064
:10487000FB6842F21072934202D90123FB750CE0EF
:104880003B681B785A013B69134403F530631B688E
:1048900003F00043B3F1004FE7D0FB7D18461C370F
:1048A000BD465DF8047B704780B489B000AFF86006
:1048B000B96011461A460B46FB711346BB80FB6874
:1048C0007B61BB68FB6197F82830002B23D1BB8844
:1048D00003339B083B610023BB6118E0FB791A039B
:1048E0007B69134403F580531A46FB691B68136008
:1048F000FB690133FB61FB690133FB61FB69013338
:10490000FB61FB690133FB61BB690133BB61BA69C0
:104910003B699A42E2D3002318462437BD465DF82E
:10492000047B704780B48BB000AFF860B960134669
:10493000FB80FB68BB61BB687B62FB889B089BB20A
:104940007B61FB8803F00303FB8300233B6214E0DD
:10495000BB6903F580531A687B6A1A607B6A01336E
:104960007B627B6A01337B627B6A01337B627B6A99
:1049700001337B623B6A01333B623A6A7B699A424C
:10498000E6D3FB8B002B1ED000233B62BB6903F5F3
:1049900080531A4607F1100312681A603A693B6A9D
:1049A000DBB2DB0022FA03F3DAB27B6A1A703B6AED
:1049B00001333B627B6A01337B62FB8B013BFB83F0
:1049C000FB8B002BEAD17B6A18462C37BD465DF87D
:1049D000047B704780B485B000AF786039607B6835
:1049E000FB603B681B78BB603B685B78012B2CD17C
:1049F000BB685A01FB68134403F510631B68002B66
:104A000012DBBB68002B0FD0BB685A01FB68134454
:104A100003F510631B68BA685101FA680A4402F58D
:104A2000106223F080431360BB685A01FB68134493
:104A300003F510631B68BA685101FA680A4402F56D
:104A4000106243F4001313602BE0BB685A01FB684B
:104A5000134403F530631B68002B12DBBB68002B8B
:104A60000FD0BB685A01FB68134403F530631B6821
:104A7000BA685101FA680A4402F5306223F08043B3
:104A80001360BB685A01FB68134403F530631B686D
:104A9000BA685101FA680A4402F5306243F400131F
:104AA0001360002318461437BD465DF8047B704739
:104AB00080B485B000AF786039607B68FB603B688C
:104AC0001B78BB603B685B78012B28D1BB685A011F
:104AD000FB68134403F510631B68BA685101FA6858
:104AE0000A4402F5106223F4001313603B681B793B
:104AF000032B03D03B681B79022B38D1BB685A01CA
:104B0000FB68134403F510631B68BA685101FA6827
:104B10000A4402F5106243F08053136027E0BB683B
:104B20005A01FB68134403F530631B68BA685101EE
:104B3000FA680A4402F5306223F4001313603B68FC
:104B40001B79032B03D03B681B79022B0FD1BB6869
:104B50005A01FB68134403F530631B68BA685101BE
:104B6000FA680A4402F5306243F080531360002370
:104B700018461437BD465DF8047B704780B485B095
:104B800000AF78600B46FB707B68FB60FB6803F549
:104B900000631B68FA6802F5006223F4FE63136089
:104BA000FB6803F500631A68FB781B0103F4FE63DE
:104BB000F96801F5006113430B60002318461437B0
:104BC000BD465DF8047B704780B485B000AF786067
:104BD0007B68FB60FB6803F560631B68FA6802F59D
:104BE000606223F003031360FB6803F500635B68F6
:104BF000FA6802F5006223F00203536000231846AE
:104C00001437BD465DF8047B704780B485B000AFB3
:104C100078607B68FB60FB6803F560631B68FA687B
:104C200002F5606223F003031360FB6803F5006381
:104C30005B68FA6802F5006243F0020353600023E8
:104C400018461437BD465DF8047B704780B485B0C4
:104C500000AF78607B685B69FB607B689B69FA6882
:104C60001340FB60FB6818461437BD465DF8047BB3
:104C7000704780B485B000AF78607B68FB60FB68EC
:104C800003F500639B69BB60FB6803F50063DB69A8
:104C9000BA681340BB60BB681B0C18461437BD468E
:104CA0005DF8047B704780B485B000AF78607B68A6
:104CB000FB60FB6803F500639B69BB60FB6803F561
:104CC0000063DB69BA681340BB60BB689BB21846DF
:104CD0001437BD465DF8047B704780B485B000AFE3
:104CE00078600B46FB707B68FB60FB785A01FB68C1
:104CF000134403F530639B68BB60FB6803F50063F6
:104D00005B69BA681340BB60BB6818461437BD4680
:104D10005DF8047B704780B487B000AF78600B46C5
:104D2000FB707B687B617B6903F500631B693B61FA
:104D30007B6903F500635B6BFB60FB7803F00F039B
:104D4000FA6822FA03F3DB01DBB23A6913433B61F1
:104D5000FB785A017B69134403F510639B683A6939
:104D60001340BB60BB6818461C37BD465DF8047B2A
:104D7000704780B483B000AF78607B685B6903F0F4
:104D8000010318460C37BD465DF8047B704780B4BC
:104D900085B000AF78607B68FB60FB6803F510634B
:104DA0001B68FA6802F5106223F4FF6323F007031F
:104DB0001360FB6803F500635B68FA6802F5006244
:104DC00043F480735360002318461437BD465DF8E2
:104DD000047B704780B487B000AFF8600B467A6000
:104DE000FB72FB687B61FB683C3304331B683B61EF
:104DF0003B69264A93420AD97B6903F530631B68F5
:104E000003F00043B3F1004F01D1002337E07B6989
:104E100003F530631A46002313617B6903F53063A1
:104E20001B697A6902F5306243F4002313617B69E0
:104E300003F530631B697A6902F5306243F01803A9
:104E400013617B6903F530631B697A6902F530628F
:104E500043F0C0431361FB7A012B0FD17B6903F54B
:104E600030631A467B6853617B6903F530631B68C6
:104E70007A6902F5306243F08023136000231846FC
:104E80001C37BD465DF8047B704700BF0A30544FA5
:104E900080B485B000AF78600023FB60FB6801330D
:104EA000FB60FB68B3F1706F01D9032322E07B68DC
:104EB0001B69002BF2DA0A23FB6002E0FB68013B6E
:104EC000FB60FB68002BF9D17B681B6943F0010292
:104ED0007B681A61FB680133FB60FB68B3F1706F9C
:104EE00001D9032306E07B681B6903F00103012B52
:104EF000F0D0002318461437BD465DF8047B704798
:104F000080B586B000AF78607B68002B01D10123AB
:104F100067E27B681B6803F00103002B75D0884BA8
:104F20009B6803F00C03042B0CD0854B9B6803F0AB
:104F30000C03082B12D1824B5B6803F48003B3F59A
:104F4000800F0BD17E4B1B6803F40033002B5BD02A
:104F50007B685B68002B57D1012342E27B685B686A
:104F6000B3F5803F06D1764B1B68754A43F4803316
:104F700013601DE07B685B68B3F5A02F0CD1704B0C
:104F80001B686F4A43F4802313606D4B1B686C4AA7
:104F900043F4803313600BE0694B1B68684A23F4C9
:104FA00080331360664B1B68654A23F480231360CB
:104FB0007B685B68002B13D001F020FB386108E0B0
:104FC00001F01CFB02463B69D31A642B01D9032371
:104FD00007E25B4B1B6803F40033002BF0D014E0B6
:104FE00001F00CFB386108E001F008FB02463B6968
:104FF000D31A642B01D90323F3E1514B1B6803F44B
:105000000033002BF0D100E000BF7B681B6803F089
:105010000203002B63D04A4B9B6803F00C03002B68
:105020000BD0474B9B6803F00C03082B1CD1444B5F
:105030005B6803F48003002B16D1414B1B6803F01F
:105040000203002B05D07B68DB68012B01D0012314
:10505000C7E13B4B1B6823F0F8027B681B69DB0050
:10506000374913430B603AE07B68DB68002B20D0A4
:10507000344B01221A6001F0C1FA386108E001F0F6
:10508000BDFA02463B69D31A022B01D90323A8E1DA
:105090002B4B1B6803F00203002BF0D0284B1B683E
:1050A00023F0F8027B681B69DB00254913430B6082
:1050B00015E0244B00221A6001F0A0FA386108E0E4
:1050C00001F09CFA02463B69D31A022B01D9032353
:1050D00087E11B4B1B6803F00203002BF0D17B68B8
:1050E0001B6803F00803002B36D07B685B69002B3C
:1050F00016D0154B01221A6001F080FA386108E0E1
:1051000001F07CFA02463B69D31A022B01D9032332
:1051100067E10B4B5B6F03F00203002BF0D01BE049
:10512000094B00221A6001F069FA38610EE001F0C3
:1051300065FA02463B69D31A022B07D9032350E1D3
:105140000038024000004742800E4742884B5B6FA8
:1051500003F00203002BEAD17B681B6803F0040311
:10516000002B00F097800023FB75814B1B6C03F034
:105170008053002B0FD10023BB607D4B1B6C7C4AFE
:1051800043F0805313647A4B1B6C03F08053BB6075
:10519000BB680123FB75774B1B6803F48073002BFE
:1051A00018D1744B1B68734A43F48073136001F089
:1051B00025FA386108E001F021FA02463B69D31A6A
:1051C000022B01D903230CE16A4B1B6803F48073A3
:1051D000002BF0D07B689B68012B06D1644B1B6FC2
:1051E000634A43F0010313671CE07B689B68052B4F
:1051F0000CD15F4B1B6F5E4A43F0040313675C4B9B
:105200001B6F5B4A43F0010313670BE0584B1B6FA6
:10521000574A23F001031367554B1B6F544A23F081
:10522000040313677B689B68002B15D001F0E6F937
:1052300038610AE001F0E2F902463B69D31A41F213
:105240008832934201D90323CBE0494B1B6F03F013
:105250000203002BEED014E001F0D0F938610AE02F
:1052600001F0CCF902463B69D31A41F288329342ED
:1052700001D90323B5E03E4B1B6F03F00203002B63
:10528000EED1FB7D012B05D1394B1B6C384A23F045
:10529000805313647B689B69002B00F0A180344B22
:1052A0009B6803F00C03082B5CD07B689B69022B86
:1052B00041D1314B00221A6001F0A0F9386108E0B9
:1052C00001F09CF902463B69D31A022B01D9032352
:1052D00087E0274B1B6803F00073002BF0D17B683D
:1052E000DA697B681B6A1A437B685B6A9B011A4315
:1052F0007B689B6A5B08013B1B041A437B68DB6A83
:105300001B061B4913434B601B4B01221A6001F023
:1053100075F9386108E001F071F902463B69D31A6A
:10532000022B01D903235CE0114B1B6803F00073CF
:10533000002BF0D054E0104B00221A6001F05EF90F
:10534000386108E001F05AF902463B69D31A022B92
:1053500001D9032345E0064B1B6803F00073002BC3
:10536000F0D13DE07B689B69012B07D1012338E038
:105370000038024000700040600047421B4B5B68F1
:10538000FB607B689B69012B28D0FB6803F48002DB
:105390007B68DB699A4221D1FB6803F03F027B689E
:1053A0001B6A9A421AD1FA6847F6C07313407A68AA
:1053B000526A9201934211D1FB6803F440327B6838
:1053C0009B6A5B08013B1B049A4207D1FB6803F010
:1053D00070627B68DB6A1B069A4201D0012300E001
:1053E000002318461837BD4680BD00BF0038024074
:1053F00080B584B000AF786039607B68002B01D144
:105400000123CCE0684B1B6803F007033A689A421B
:105410000CD9654B3A68D2B21A70634B1B6803F023
:1054200007033A689A4201D00123B8E07B681B6801
:1054300003F00203002B20D07B681B6803F00403F9
:10544000002B05D0594B9B68584A43F4E0539360B6
:105450007B681B6803F00803002B05D0534B9B6847
:10546000524A43F460439360504B9B6823F0F00230
:105470007B689B684D4913438B607B681B6803F016
:105480000103002B44D07B685B68012B07D1474B9D
:105490001B6803F40033002B19D101237FE07B68E4
:1054A0005B68022B03D07B685B68032B07D13F4B03
:1054B0001B6803F00073002B09D101236FE03B4B05
:1054C0001B6803F00203002B01D1012367E0374B77
:1054D0009B6823F003027B685B68344913438B604D
:1054E00001F08CF8F8600AE001F088F80246FB68E9
:1054F000D31A41F28832934201D903234FE02B4B58
:105500009B6803F00C027B685B689B009A42EBD1BE
:10551000254B1B6803F007033A689A420CD2224BD2
:105520003A68D2B21A70204B1B6803F007033A683E
:105530009A4201D0012332E07B681B6803F0040328
:10554000002B08D0194B9B6823F4E0527B68DB6882
:10555000164913438B607B681B6803F00803002B1C
:1055600009D0124B9B6823F460427B681B69DB0007
:105570000E4913438B6000F021F802460B4B9B68E9
:105580001B0903F00F030A49CB5C22FA03F3094A13
:105590001360094B1B6818460BF0B0FA002318463D
:1055A0001037BD4680BD00BF003C024000380240BD
:1055B000741F010850000020540000202DE9B04F56
:1055C00090B000AF00237B630023FB6300233B63A9
:1055D0000023BB63594B9B6803F00C03082B0DD0D1
:1055E000082B00F2A180002B02D0042B03D09BE0FB
:1055F000534BBB639BE0534BBB6398E04F4B5B68E3
:1056000003F03F037B634D4B5B6803F48003002B87
:1056100028D04A4B5B689B0900223B627A623B6A56
:10562000C3F308000021474B03FB01F2002300FBFA
:1056300003F31344434AA0FB0212FA620A46BA6219
:10564000FA6A1344FB627B6B0022BB61FA61D7E903
:105650000623D7E90A01FCF7B1FA02460B461346C6
:10566000FB6353E0354B5B689B0900223B617A6129
:105670003B69C3F3080A4FF0000B52465B464FF0FC
:1056800000004FF00001590141EAD2615001024689
:105690000B46B2EB0A0863EB0B094FF000024FF028
:1056A00000034FEA891343EA98634FEA8812B2EB8A
:1056B000080463EB09054FF000024FF00003EB0014
:1056C00043EA5473E20014461D4614EB0A033B60A0
:1056D00045EB0B037B604FF000024FF00003D7E96E
:1056E000004529468B02214643EA915321468A020E
:1056F000104619467B6B0022BB60FA60D7E9022393
:10570000FCF75CFA02460B461346FB630B4B5B68E7
:105710001B0C03F0030301335B003B63FA6B3B6B31
:10572000B2FBF3F3BB6302E0054BBB6300BFBB6B93
:1057300018464037BD46BDE8B08F00BF0038024074
:105740000024F40040787D0180B400AF034B1B6857
:105750001846BD465DF8047B704700BF500000202E
:1057600080B500AFFFF7F0FF0246054B9B689B0A30
:1057700003F007030349CB5C22FA03F3184680BD0C
:1057800000380240841F010880B500AFFFF7DCFF3E
:105790000246054B9B685B0B03F007030349CB5C98
:1057A00022FA03F3184680BD00380240841F010826
:1057B00080B483B000AF786039607B680F221A60D4
:1057C000124B9B6803F003027B685A600F4B9B6887
:1057D00003F0F0027B689A600C4B9B6803F4E05284
:1057E0007B68DA60094B9B68DB0803F4E0527B6856
:1057F0001A61074B1B6803F007023B681A6000BF81
:105800000C37BD465DF8047B704700BF003802408E
:10581000003C024080B489B000AF7860396000235A
:105820007B6100233B610023BB610023FB616BE1D3
:105830000122FB6902FA03F37B613B681B687A690A
:1058400013403B613A697B699A4240F05A813B6858
:105850005B6803F00303012B05D03B685B6803F032
:105860000303022B30D17B689B68BB61FB695B0043
:10587000032202FA03F3DB43BA691340BB613B68BE
:10588000DA68FB695B0002FA03F3BA691343BB6190
:105890007B68BA699A607B685B68BB610122FB69BF
:1058A00002FA03F3DB43BA691340BB613B685B68F0
:1058B0001B0903F00102FB6902FA03F3BA691343FF
:1058C000BB617B68BA695A603B685B6803F003039D
:1058D000032B17D07B68DB68BB61FB695B0003228D
:1058E00002FA03F3DB43BA691340BB613B689A6871
:1058F000FB695B0002FA03F3BA691343BB617B687F
:10590000BA69DA603B685B6803F00303022B23D1BA
:10591000FB69DA087B68083253F82230BB61FB6907
:1059200003F007039B000F2202FA03F3DB43BA697B
:105930001340BB613B681A69FB6903F007039B00D6
:1059400002FA03F3BA691343BB61FB69DA087B68A7
:105950000832B96943F822107B681B68BB61FB6998
:105960005B00032202FA03F3DB43BA691340BB6115
:105970003B685B6803F00302FB695B0002FA03F318
:10598000BA691343BB617B68BA691A603B685B689C
:1059900003F44033002B00F0B4800023FB60604B25
:1059A0005B6C5F4A43F4804353645D4B5B6C03F470
:1059B0008043FB60FB685B4AFB699B08023352F83B
:1059C0002330BB61FB6903F003039B000F2202FA43
:1059D00003F3DB43BA691340BB617B68524A9342CD
:1059E0002BD07B68514A934225D07B68504A934222
:1059F0001FD07B684F4A934219D07B684E4A93422E
:105A000013D07B684D4A93420DD07B684C4A934239
:105A100007D07B684B4A934201D107230EE008234D
:105A20000CE006230AE0052308E0042306E0032334
:105A300004E0022302E0012300E00023FA6902F0FF
:105A4000030292009340BA691343BB613549FB6975
:105A50009B080233BA6941F823203B4B9B68BB612A
:105A60003B69DB43BA691340BB613B685B6803F485
:105A70008013002B03D0BA693B691343BB61324AE0
:105A8000BB699360304BDB68BB613B69DB43BA6940
:105A90001340BB613B685B6803F40013002B03D029
:105AA000BA693B691343BB61274ABB69D360264B84
:105AB0005B68BB613B69DB43BA691340BB613B6810
:105AC0005B6803F40033002B03D0BA693B691343CE
:105AD000BB611D4ABB6953601B4B1B68BB613B69C3
